{
  "contractName": "RES4",
  "abi": [
    {
      "inputs": [],
      "payable": false,
      "stateMutability": "nonpayable",
      "type": "constructor"
    },
    {
      "anonymous": false,
      "inputs": [
        {
          "indexed": true,
          "internalType": "address",
          "name": "owner",
          "type": "address"
        },
        {
          "indexed": true,
          "internalType": "address",
          "name": "approved",
          "type": "address"
        },
        {
          "indexed": true,
          "internalType": "uint256",
          "name": "tokenId",
          "type": "uint256"
        }
      ],
      "name": "Approval",
      "type": "event"
    },
    {
      "anonymous": false,
      "inputs": [
        {
          "indexed": true,
          "internalType": "address",
          "name": "owner",
          "type": "address"
        },
        {
          "indexed": true,
          "internalType": "address",
          "name": "operator",
          "type": "address"
        },
        {
          "indexed": false,
          "internalType": "bool",
          "name": "approved",
          "type": "bool"
        }
      ],
      "name": "ApprovalForAll",
      "type": "event"
    },
    {
      "anonymous": false,
      "inputs": [
        {
          "indexed": true,
          "internalType": "address",
          "name": "from",
          "type": "address"
        },
        {
          "indexed": true,
          "internalType": "address",
          "name": "to",
          "type": "address"
        },
        {
          "indexed": true,
          "internalType": "uint256",
          "name": "tokenId",
          "type": "uint256"
        }
      ],
      "name": "Transfer",
      "type": "event"
    },
    {
      "constant": true,
      "inputs": [
        {
          "internalType": "uint256",
          "name": "",
          "type": "uint256"
        }
      ],
      "name": "assetApprovals",
      "outputs": [
        {
          "internalType": "address",
          "name": "",
          "type": "address"
        }
      ],
      "payable": false,
      "stateMutability": "view",
      "type": "function"
    },
    {
      "constant": true,
      "inputs": [
        {
          "internalType": "uint256",
          "name": "",
          "type": "uint256"
        }
      ],
      "name": "assetMap",
      "outputs": [
        {
          "internalType": "uint256",
          "name": "assetId",
          "type": "uint256"
        },
        {
          "internalType": "uint256",
          "name": "price",
          "type": "uint256"
        },
        {
          "internalType": "string",
          "name": "autor",
          "type": "string"
        },
        {
          "internalType": "string",
          "name": "titulo",
          "type": "string"
        },
        {
          "internalType": "uint256",
          "name": "fecha",
          "type": "uint256"
        },
        {
          "internalType": "uint256",
          "name": "frac",
          "type": "uint256"
        },
        {
          "internalType": "string",
          "name": "tokenCDI",
          "type": "string"
        },
        {
          "internalType": "string",
          "name": "tokenCDI1",
          "type": "string"
        }
      ],
      "payable": false,
      "stateMutability": "view",
      "type": "function"
    },
    {
      "constant": true,
      "inputs": [],
      "name": "assetsCount",
      "outputs": [
        {
          "internalType": "uint256",
          "name": "",
          "type": "uint256"
        }
      ],
      "payable": false,
      "stateMutability": "view",
      "type": "function"
    },
    {
      "constant": true,
      "inputs": [],
      "name": "supervisor",
      "outputs": [
        {
          "internalType": "address",
          "name": "",
          "type": "address"
        }
      ],
      "payable": false,
      "stateMutability": "view",
      "type": "function"
    },
    {
      "constant": true,
      "inputs": [
        {
          "internalType": "bytes4",
          "name": "interfaceId",
          "type": "bytes4"
        }
      ],
      "name": "supportsInterface",
      "outputs": [
        {
          "internalType": "bool",
          "name": "",
          "type": "bool"
        }
      ],
      "payable": false,
      "stateMutability": "view",
      "type": "function"
    },
    {
      "constant": true,
      "inputs": [
        {
          "internalType": "address",
          "name": "owner",
          "type": "address"
        }
      ],
      "name": "balanceOf",
      "outputs": [
        {
          "internalType": "uint256",
          "name": "",
          "type": "uint256"
        }
      ],
      "payable": false,
      "stateMutability": "view",
      "type": "function"
    },
    {
      "constant": true,
      "inputs": [],
      "name": "balanceOf",
      "outputs": [
        {
          "internalType": "uint256",
          "name": "",
          "type": "uint256"
        }
      ],
      "payable": false,
      "stateMutability": "view",
      "type": "function"
    },
    {
      "constant": true,
      "inputs": [
        {
          "internalType": "uint256",
          "name": "assetId",
          "type": "uint256"
        }
      ],
      "name": "ownerOf",
      "outputs": [
        {
          "internalType": "address",
          "name": "",
          "type": "address"
        }
      ],
      "payable": false,
      "stateMutability": "view",
      "type": "function"
    },
    {
      "constant": false,
      "inputs": [
        {
          "internalType": "address payable",
          "name": "from",
          "type": "address"
        },
        {
          "internalType": "uint256",
          "name": "assetId",
          "type": "uint256"
        }
      ],
      "name": "transferFrom",
      "outputs": [],
      "payable": true,
      "stateMutability": "payable",
      "type": "function"
    },
    {
      "constant": false,
      "inputs": [
        {
          "internalType": "address",
          "name": "from",
          "type": "address"
        },
        {
          "internalType": "address",
          "name": "to",
          "type": "address"
        },
        {
          "internalType": "uint256",
          "name": "tokenId",
          "type": "uint256"
        }
      ],
      "name": "transferFrom",
      "outputs": [],
      "payable": false,
      "stateMutability": "nonpayable",
      "type": "function"
    },
    {
      "constant": false,
      "inputs": [
        {
          "internalType": "address",
          "name": "to",
          "type": "address"
        },
        {
          "internalType": "uint256",
          "name": "assetId",
          "type": "uint256"
        }
      ],
      "name": "approve",
      "outputs": [],
      "payable": false,
      "stateMutability": "nonpayable",
      "type": "function"
    },
    {
      "constant": true,
      "inputs": [
        {
          "internalType": "uint256",
          "name": "assetId",
          "type": "uint256"
        }
      ],
      "name": "getApproved",
      "outputs": [
        {
          "internalType": "address",
          "name": "",
          "type": "address"
        }
      ],
      "payable": false,
      "stateMutability": "view",
      "type": "function"
    },
    {
      "constant": false,
      "inputs": [
        {
          "internalType": "uint256",
          "name": "price",
          "type": "uint256"
        },
        {
          "internalType": "string",
          "name": "autor",
          "type": "string"
        },
        {
          "internalType": "string",
          "name": "titulo",
          "type": "string"
        },
        {
          "internalType": "uint256",
          "name": "fecha",
          "type": "uint256"
        },
        {
          "internalType": "uint256",
          "name": "frac",
          "type": "uint256"
        },
        {
          "internalType": "string",
          "name": "tokenCDI",
          "type": "string"
        },
        {
          "internalType": "string",
          "name": "tokenCDI1",
          "type": "string"
        },
        {
          "internalType": "address",
          "name": "to",
          "type": "address"
        }
      ],
      "name": "addAsset",
      "outputs": [],
      "payable": false,
      "stateMutability": "nonpayable",
      "type": "function"
    },
    {
      "constant": false,
      "inputs": [
        {
          "internalType": "uint256",
          "name": "assetId",
          "type": "uint256"
        },
        {
          "internalType": "address",
          "name": "approved",
          "type": "address"
        }
      ],
      "name": "clearApproval",
      "outputs": [],
      "payable": false,
      "stateMutability": "nonpayable",
      "type": "function"
    },
    {
      "constant": false,
      "inputs": [
        {
          "internalType": "uint256",
          "name": "assetId",
          "type": "uint256"
        },
        {
          "internalType": "uint256",
          "name": "value",
          "type": "uint256"
        }
      ],
      "name": "build",
      "outputs": [],
      "payable": true,
      "stateMutability": "payable",
      "type": "function"
    },
    {
      "constant": false,
      "inputs": [
        {
          "internalType": "uint256",
          "name": "assetId",
          "type": "uint256"
        },
        {
          "internalType": "uint256",
          "name": "value",
          "type": "uint256"
        }
      ],
      "name": "appreciate",
      "outputs": [],
      "payable": false,
      "stateMutability": "nonpayable",
      "type": "function"
    },
    {
      "constant": false,
      "inputs": [
        {
          "internalType": "uint256",
          "name": "assetId",
          "type": "uint256"
        },
        {
          "internalType": "uint256",
          "name": "value",
          "type": "uint256"
        }
      ],
      "name": "depreciate",
      "outputs": [],
      "payable": false,
      "stateMutability": "nonpayable",
      "type": "function"
    },
    {
      "constant": true,
      "inputs": [],
      "name": "getAssetsSize",
      "outputs": [
        {
          "internalType": "uint256",
          "name": "",
          "type": "uint256"
        }
      ],
      "payable": false,
      "stateMutability": "view",
      "type": "function"
    },
    {
      "constant": false,
      "inputs": [
        {
          "internalType": "address",
          "name": "to",
          "type": "address"
        },
        {
          "internalType": "bool",
          "name": "approved",
          "type": "bool"
        }
      ],
      "name": "setApprovalForAll",
      "outputs": [],
      "payable": false,
      "stateMutability": "nonpayable",
      "type": "function"
    },
    {
      "constant": true,
      "inputs": [
        {
          "internalType": "address",
          "name": "owner",
          "type": "address"
        },
        {
          "internalType": "address",
          "name": "operator",
          "type": "address"
        }
      ],
      "name": "isApprovedForAll",
      "outputs": [
        {
          "internalType": "bool",
          "name": "",
          "type": "bool"
        }
      ],
      "payable": false,
      "stateMutability": "view",
      "type": "function"
    },
    {
      "constant": false,
      "inputs": [
        {
          "internalType": "address",
          "name": "from",
          "type": "address"
        },
        {
          "internalType": "address",
          "name": "to",
          "type": "address"
        },
        {
          "internalType": "uint256",
          "name": "tokenId",
          "type": "uint256"
        }
      ],
      "name": "safeTransferFrom",
      "outputs": [],
      "payable": false,
      "stateMutability": "nonpayable",
      "type": "function"
    },
    {
      "constant": false,
      "inputs": [
        {
          "internalType": "address",
          "name": "from",
          "type": "address"
        },
        {
          "internalType": "address",
          "name": "to",
          "type": "address"
        },
        {
          "internalType": "uint256",
          "name": "tokenId",
          "type": "uint256"
        },
        {
          "internalType": "bytes",
          "name": "_data",
          "type": "bytes"
        }
      ],
      "name": "safeTransferFrom",
      "outputs": [],
      "payable": false,
      "stateMutability": "nonpayable",
      "type": "function"
    }
  ],
  "bytecode": "0x60806040523480156200001157600080fd5b506200002a6301ffc9a760e01b6200008960201b60201c565b620000426380ac58cd60e01b6200008960201b60201c565b33600760006101000a81548173ffffffffffffffffffffffffffffffffffffffff021916908373ffffffffffffffffffffffffffffffffffffffff16021790555062000192565b63ffffffff60e01b817bffffffffffffffffffffffffffffffffffffffffffffffffffffffff1916141562000126576040517f08c379a000000000000000000000000000000000000000000000000000000000815260040180806020018281038252601c8152602001807f4552433136353a20696e76616c696420696e746572666163652069640000000081525060200191505060405180910390fd5b6001600080837bffffffffffffffffffffffffffffffffffffffffffffffffffffffff19167bffffffffffffffffffffffffffffffffffffffffffffffffffffffff1916815260200190815260200160002060006101000a81548160ff02191690831515021790555050565b613a1480620001a26000396000f3fe6080604052600436106101355760003560e01c806342842e0e116100ab5780639f980f911161006f5780639f980f9114610b2b578063a22cb46514610b70578063b88d4fde14610bcd578063cd9df19014610cdf578063daa5fe2d14610d0a578063e985e9c514610d6557610135565b806342842e0e1461094e57806356e4b68b146109c95780636352211e14610a2057806370a0823114610a9b578063722713f714610b0057610135565b806311a48c4f116100fd57806311a48c4f1461034b578063129f90081461061757806323b872dd1461082b578063271acaf3146108a65780632b34af51146108de57806336448b041461092357610135565b806301c6adc31461013a57806301ffc9a71461018857806303385770146101fa578063081812fc14610275578063095ea7b3146102f0575b600080fd5b6101866004803603604081101561015057600080fd5b81019080803573ffffffffffffffffffffffffffffffffffffffff16906020019092919080359060200190929190505050610dee565b005b34801561019457600080fd5b506101e0600480360360208110156101ab57600080fd5b8101908080357bffffffffffffffffffffffffffffffffffffffffffffffffffffffff191690602001909291905050506110dc565b604051808215151515815260200191505060405180910390f35b34801561020657600080fd5b506102336004803603602081101561021d57600080fd5b8101908080359060200190929190505050611143565b604051808273ffffffffffffffffffffffffffffffffffffffff1673ffffffffffffffffffffffffffffffffffffffff16815260200191505060405180910390f35b34801561028157600080fd5b506102ae6004803603602081101561029857600080fd5b8101908080359060200190929190505050611176565b604051808273ffffffffffffffffffffffffffffffffffffffff1673ffffffffffffffffffffffffffffffffffffffff16815260200191505060405180910390f35b3480156102fc57600080fd5b506103496004803603604081101561031357600080fd5b81019080803573ffffffffffffffffffffffffffffffffffffffff16906020019092919080359060200190929190505050611211565b005b34801561035757600080fd5b50610615600480360361010081101561036f57600080fd5b81019080803590602001909291908035906020019064010000000081111561039657600080fd5b8201836020820111156103a857600080fd5b803590602001918460018302840111640100000000831117156103ca57600080fd5b91908080601f016020809104026020016040519081016040528093929190818152602001838380828437600081840152601f19601f8201169050808301925050505050505091929192908035906020019064010000000081111561042d57600080fd5b82018360208201111561043f57600080fd5b8035906020019184600183028401116401000000008311171561046157600080fd5b91908080601f016020809104026020016040519081016040528093929190818152602001838380828437600081840152601f19601f8201169050808301925050505050505091929192908035906020019092919080359060200190929190803590602001906401000000008111156104d857600080fd5b8201836020820111156104ea57600080fd5b8035906020019184600183028401116401000000008311171561050c57600080fd5b91908080601f016020809104026020016040519081016040528093929190818152602001838380828437600081840152601f19601f8201169050808301925050505050505091929192908035906020019064010000000081111561056f57600080fd5b82018360208201111561058157600080fd5b803590602001918460018302840111640100000000831117156105a357600080fd5b91908080601f016020809104026020016040519081016040528093929190818152602001838380828437600081840152601f19601f820116905080830192505050505050509192919290803573ffffffffffffffffffffffffffffffffffffffff169060200190929190505050611413565b005b34801561062357600080fd5b506106506004803603602081101561063a57600080fd5b81019080803590602001909291905050506115e8565b604051808981526020018881526020018060200180602001878152602001868152602001806020018060200185810385528b818151815260200191508051906020019080838360005b838110156106b4578082015181840152602081019050610699565b50505050905090810190601f1680156106e15780820380516001836020036101000a031916815260200191505b5085810384528a818151815260200191508051906020019080838360005b8381101561071a5780820151818401526020810190506106ff565b50505050905090810190601f1680156107475780820380516001836020036101000a031916815260200191505b50858103835287818151815260200191508051906020019080838360005b83811015610780578082015181840152602081019050610765565b50505050905090810190601f1680156107ad5780820380516001836020036101000a031916815260200191505b50858103825286818151815260200191508051906020019080838360005b838110156107e65780820151818401526020810190506107cb565b50505050905090810190601f1680156108135780820380516001836020036101000a031916815260200191505b509c5050505050505050505050505060405180910390f35b34801561083757600080fd5b506108a46004803603606081101561084e57600080fd5b81019080803573ffffffffffffffffffffffffffffffffffffffff169060200190929190803573ffffffffffffffffffffffffffffffffffffffff16906020019092919080359060200190929190505050611890565b005b6108dc600480360360408110156108bc57600080fd5b8101908080359060200190929190803590602001909291905050506118ff565b005b3480156108ea57600080fd5b506109216004803603604081101561090157600080fd5b810190808035906020019092919080359060200190929190505050611d67565b005b34801561092f57600080fd5b50610938612216565b6040518082815260200191505060405180910390f35b34801561095a57600080fd5b506109c76004803603606081101561097157600080fd5b81019080803573ffffffffffffffffffffffffffffffffffffffff169060200190929190803573ffffffffffffffffffffffffffffffffffffffff16906020019092919080359060200190929190505050612220565b005b3480156109d557600080fd5b506109de612240565b604051808273ffffffffffffffffffffffffffffffffffffffff1673ffffffffffffffffffffffffffffffffffffffff16815260200191505060405180910390f35b348015610a2c57600080fd5b50610a5960048036036020811015610a4357600080fd5b8101908080359060200190929190505050612266565b604051808273ffffffffffffffffffffffffffffffffffffffff1673ffffffffffffffffffffffffffffffffffffffff16815260200191505060405180910390f35b348015610aa757600080fd5b50610aea60048036036020811015610abe57600080fd5b81019080803573ffffffffffffffffffffffffffffffffffffffff16906020019092919050505061234b565b6040518082815260200191505060405180910390f35b348015610b0c57600080fd5b50610b15612420565b6040518082815260200191505060405180910390f35b348015610b3757600080fd5b50610b6e60048036036040811015610b4e57600080fd5b8101908080359060200190929190803590602001909291905050506124ec565b005b348015610b7c57600080fd5b50610bcb60048036036040811015610b9357600080fd5b81019080803573ffffffffffffffffffffffffffffffffffffffff16906020019092919080351515906020019092919050505061299b565b005b348015610bd957600080fd5b50610cdd60048036036080811015610bf057600080fd5b81019080803573ffffffffffffffffffffffffffffffffffffffff169060200190929190803573ffffffffffffffffffffffffffffffffffffffff1690602001909291908035906020019092919080359060200190640100000000811115610c5757600080fd5b820183602082011115610c6957600080fd5b80359060200191846001830284011164010000000083111715610c8b57600080fd5b91908080601f016020809104026020016040519081016040528093929190818152602001838380828437600081840152601f19601f820116905080830192505050505050509192919290505050612b3e565b005b348015610ceb57600080fd5b50610cf4612bb0565b6040518082815260200191505060405180910390f35b348015610d1657600080fd5b50610d6360048036036040811015610d2d57600080fd5b8101908080359060200190929190803573ffffffffffffffffffffffffffffffffffffffff169060200190929190505050612bb6565b005b348015610d7157600080fd5b50610dd460048036036040811015610d8857600080fd5b81019080803573ffffffffffffffffffffffffffffffffffffffff169060200190929190803573ffffffffffffffffffffffffffffffffffffffff169060200190929190505050612c75565b604051808215151515815260200191505060405180910390f35b610df83382612d09565b610e6a576040517f08c379a00000000000000000000000000000000000000000000000000000000081526004018080602001828103825260128152602001807f4e6f74416e417070726f7665644f776e6572000000000000000000000000000081525060200191505060405180910390fd5b8173ffffffffffffffffffffffffffffffffffffffff16610e8a82612266565b73ffffffffffffffffffffffffffffffffffffffff1614610f13576040517f08c379a00000000000000000000000000000000000000000000000000000000081526004018080602001828103825260108152602001807f4e6f7454686561737365744f776e65720000000000000000000000000000000081525060200191505060405180910390fd5b610f2581610f2083611176565b612bb6565b600960008373ffffffffffffffffffffffffffffffffffffffff1673ffffffffffffffffffffffffffffffffffffffff1681526020019081526020016000206000815480929190600190039190505550600960003373ffffffffffffffffffffffffffffffffffffffff1673ffffffffffffffffffffffffffffffffffffffff16815260200190815260200160002060008154809291906001019190505550336008600083815260200190815260200160002060006101000a81548173ffffffffffffffffffffffffffffffffffffffff021916908373ffffffffffffffffffffffffffffffffffffffff1602179055508173ffffffffffffffffffffffffffffffffffffffff166108fc670de0b6b3a76400006006600085815260200190815260200160002060010154029081150290604051600060405180830381858888f1935050505015801561107c573d6000803e3d6000fd5b50803373ffffffffffffffffffffffffffffffffffffffff168373ffffffffffffffffffffffffffffffffffffffff167fddf252ad1be2c89b69c2b068fc378daa952ba7f163c4a11628f55a4df523b3ef60405160405180910390a45050565b6000806000837bffffffffffffffffffffffffffffffffffffffffffffffffffffffff19167bffffffffffffffffffffffffffffffffffffffffffffffffffffffff1916815260200190815260200160002060009054906101000a900460ff169050919050565b600a6020528060005260406000206000915054906101000a900473ffffffffffffffffffffffffffffffffffffffff1681565b600061118182612dec565b6111d6576040517f08c379a000000000000000000000000000000000000000000000000000000000815260040180806020018281038252602c81526020018061395a602c913960400191505060405180910390fd5b600a600083815260200190815260200160002060009054906101000a900473ffffffffffffffffffffffffffffffffffffffff169050919050565b600061121c82612266565b90508073ffffffffffffffffffffffffffffffffffffffff168373ffffffffffffffffffffffffffffffffffffffff1614156112c0576040517f08c379a00000000000000000000000000000000000000000000000000000000081526004018080602001828103825260148152602001807f43757272656e744f776e6572417070726f76616c00000000000000000000000081525060200191505060405180910390fd5b8073ffffffffffffffffffffffffffffffffffffffff163373ffffffffffffffffffffffffffffffffffffffff1614611361576040517f08c379a00000000000000000000000000000000000000000000000000000000081526004018080602001828103825260108152602001807f4e6f7454686541737365744f776e65720000000000000000000000000000000081525060200191505060405180910390fd5b82600a600084815260200190815260200160002060006101000a81548173ffffffffffffffffffffffffffffffffffffffff021916908373ffffffffffffffffffffffffffffffffffffffff160217905550818373ffffffffffffffffffffffffffffffffffffffff168273ffffffffffffffffffffffffffffffffffffffff167f8c5be1e5ebec7d5bd14f71427d1e84f3dd0314c0f7b2291e5b200ac8c7c3b92560405160405180910390a4505050565b3373ffffffffffffffffffffffffffffffffffffffff16600760009054906101000a900473ffffffffffffffffffffffffffffffffffffffff1673ffffffffffffffffffffffffffffffffffffffff16146114d6576040517f08c379a000000000000000000000000000000000000000000000000000000000815260040180806020018281038252600b8152602001807f4e6f74414d616e6167657200000000000000000000000000000000000000000081525060200191505060405180910390fd5b604051806101000160405280600554815260200189815260200188815260200187815260200186815260200185815260200184815260200183815250600660006005548152602001908152602001600020600082015181600001556020820151816001015560408201518160020190805190602001906115579291906137c3565b5060608201518160030190805190602001906115749291906137c3565b506080820151816004015560a0820151816005015560c08201518160060190805190602001906115a59291906137c3565b5060e08201518160070190805190602001906115c29291906137c3565b509050506115d281600554612e58565b6001600554016005819055505050505050505050565b6006602052806000526040600020600091509050806000015490806001015490806002018054600181600116156101000203166002900480601f0160208091040260200160405190810160405280929190818152602001828054600181600116156101000203166002900480156116a05780601f10611675576101008083540402835291602001916116a0565b820191906000526020600020905b81548152906001019060200180831161168357829003601f168201915b505050505090806003018054600181600116156101000203166002900480601f01602080910402602001604051908101604052809291908181526020018280546001816001161561010002031660029004801561173e5780601f106117135761010080835404028352916020019161173e565b820191906000526020600020905b81548152906001019060200180831161172157829003601f168201915b505050505090806004015490806005015490806006018054600181600116156101000203166002900480601f0160208091040260200160405190810160405280929190818152602001828054600181600116156101000203166002900480156117e85780601f106117bd576101008083540402835291602001916117e8565b820191906000526020600020905b8154815290600101906020018083116117cb57829003601f168201915b505050505090806007018054600181600116156101000203166002900480601f0160208091040260200160405190810160405280929190818152602001828054600181600116156101000203166002900480156118865780601f1061185b57610100808354040283529160200191611886565b820191906000526020600020905b81548152906001019060200180831161186957829003601f168201915b5050505050905088565b61189a3382613078565b6118ef576040517f08c379a00000000000000000000000000000000000000000000000000000000081526004018080602001828103825260318152602001806139af6031913960400191505060405180910390fd5b6118fa83838361316c565b505050565b6119093383612d09565b61197b576040517f08c379a00000000000000000000000000000000000000000000000000000000081526004018080602001828103825260128152602001807f4e6f74416e417070726f7665646f776e6572000000000000000000000000000081525060200191505060405180910390fd5b611983613843565b60066000848152602001908152602001600020604051806101000160405290816000820154815260200160018201548152602001600282018054600181600116156101000203166002900480601f016020809104026020016040519081016040528092919081815260200182805460018160011615610100020316600290048015611a4f5780601f10611a2457610100808354040283529160200191611a4f565b820191906000526020600020905b815481529060010190602001808311611a3257829003601f168201915b50505050508152602001600382018054600181600116156101000203166002900480601f016020809104026020016040519081016040528092919081815260200182805460018160011615610100020316600290048015611af15780601f10611ac657610100808354040283529160200191611af1565b820191906000526020600020905b815481529060010190602001808311611ad457829003601f168201915b505050505081526020016004820154815260200160058201548152602001600682018054600181600116156101000203166002900480601f016020809104026020016040519081016040528092919081815260200182805460018160011615610100020316600290048015611ba75780601f10611b7c57610100808354040283529160200191611ba7565b820191906000526020600020905b815481529060010190602001808311611b8a57829003601f168201915b50505050508152602001600782018054600181600116156101000203166002900480601f016020809104026020016040519081016040528092919081815260200182805460018160011615610100020316600290048015611c495780601f10611c1e57610100808354040283529160200191611c49565b820191906000526020600020905b815481529060010190602001808311611c2c57829003601f168201915b5050505050815250509050604051806101000160405280826000015181526020018383602001510181526020018260400151815260200182606001518152602001826080015181526020018260a0015181526020018260c0015181526020018260e001518152506006600085815260200190815260200160002060008201518160000155602082015181600101556040820151816002019080519060200190611cf39291906137c3565b506060820151816003019080519060200190611d109291906137c3565b506080820151816004015560a0820151816005015560c0820151816006019080519060200190611d419291906137c3565b5060e0820151816007019080519060200190611d5e9291906137c3565b50905050505050565b600760009054906101000a900473ffffffffffffffffffffffffffffffffffffffff1673ffffffffffffffffffffffffffffffffffffffff163373ffffffffffffffffffffffffffffffffffffffff1614611e2a576040517f08c379a000000000000000000000000000000000000000000000000000000000815260040180806020018281038252600b8152602001807f4e6f74614d616e6167657200000000000000000000000000000000000000000081525060200191505060405180910390fd5b611e32613843565b60066000848152602001908152602001600020604051806101000160405290816000820154815260200160018201548152602001600282018054600181600116156101000203166002900480601f016020809104026020016040519081016040528092919081815260200182805460018160011615610100020316600290048015611efe5780601f10611ed357610100808354040283529160200191611efe565b820191906000526020600020905b815481529060010190602001808311611ee157829003601f168201915b50505050508152602001600382018054600181600116156101000203166002900480601f016020809104026020016040519081016040528092919081815260200182805460018160011615610100020316600290048015611fa05780601f10611f7557610100808354040283529160200191611fa0565b820191906000526020600020905b815481529060010190602001808311611f8357829003601f168201915b505050505081526020016004820154815260200160058201548152602001600682018054600181600116156101000203166002900480601f0160208091040260200160405190810160405280929190818152602001828054600181600116156101000203166002900480156120565780601f1061202b57610100808354040283529160200191612056565b820191906000526020600020905b81548152906001019060200180831161203957829003601f168201915b50505050508152602001600782018054600181600116156101000203166002900480601f0160208091040260200160405190810160405280929190818152602001828054600181600116156101000203166002900480156120f85780601f106120cd576101008083540402835291602001916120f8565b820191906000526020600020905b8154815290600101906020018083116120db57829003601f168201915b5050505050815250509050604051806101000160405280826000015181526020018383602001510181526020018260400151815260200182606001518152602001826080015181526020018260a0015181526020018260c0015181526020018260e0015181525060066000858152602001908152602001600020600082015181600001556020820151816001015560408201518160020190805190602001906121a29291906137c3565b5060608201518160030190805190602001906121bf9291906137c3565b506080820151816004015560a0820151816005015560c08201518160060190805190602001906121f09291906137c3565b5060e082015181600701908051906020019061220d9291906137c3565b50905050505050565b6000600554905090565b61223b83838360405180602001604052806000815250612b3e565b505050565b600760009054906101000a900473ffffffffffffffffffffffffffffffffffffffff1681565b6000806008600084815260200190815260200160002060009054906101000a900473ffffffffffffffffffffffffffffffffffffffff169050600073ffffffffffffffffffffffffffffffffffffffff168173ffffffffffffffffffffffffffffffffffffffff161415612342576040517f08c379a000000000000000000000000000000000000000000000000000000000815260040180806020018281038252600d8152602001807f4e6f41737365744578697374730000000000000000000000000000000000000081525060200191505060405180910390fd5b80915050919050565b60008073ffffffffffffffffffffffffffffffffffffffff168273ffffffffffffffffffffffffffffffffffffffff1614156123d2576040517f08c379a000000000000000000000000000000000000000000000000000000000815260040180806020018281038252602a815260200180613930602a913960400191505060405180910390fd5b612419600360008473ffffffffffffffffffffffffffffffffffffffff1673ffffffffffffffffffffffffffffffffffffffff1681526020019081526020016000206133c7565b9050919050565b60008073ffffffffffffffffffffffffffffffffffffffff163373ffffffffffffffffffffffffffffffffffffffff1614156124a7576040517f08c379a000000000000000000000000000000000000000000000000000000000815260040180806020018281038252602a815260200180613930602a913960400191505060405180910390fd5b600960003373ffffffffffffffffffffffffffffffffffffffff1673ffffffffffffffffffffffffffffffffffffffff16815260200190815260200160002054905090565b600760009054906101000a900473ffffffffffffffffffffffffffffffffffffffff1673ffffffffffffffffffffffffffffffffffffffff163373ffffffffffffffffffffffffffffffffffffffff16146125af576040517f08c379a000000000000000000000000000000000000000000000000000000000815260040180806020018281038252600b8152602001807f4e6f74614d616e6167657200000000000000000000000000000000000000000081525060200191505060405180910390fd5b6125b7613843565b60066000848152602001908152602001600020604051806101000160405290816000820154815260200160018201548152602001600282018054600181600116156101000203166002900480601f0160208091040260200160405190810160405280929190818152602001828054600181600116156101000203166002900480156126835780601f1061265857610100808354040283529160200191612683565b820191906000526020600020905b81548152906001019060200180831161266657829003601f168201915b50505050508152602001600382018054600181600116156101000203166002900480601f0160208091040260200160405190810160405280929190818152602001828054600181600116156101000203166002900480156127255780601f106126fa57610100808354040283529160200191612725565b820191906000526020600020905b81548152906001019060200180831161270857829003601f168201915b505050505081526020016004820154815260200160058201548152602001600682018054600181600116156101000203166002900480601f0160208091040260200160405190810160405280929190818152602001828054600181600116156101000203166002900480156127db5780601f106127b0576101008083540402835291602001916127db565b820191906000526020600020905b8154815290600101906020018083116127be57829003601f168201915b50505050508152602001600782018054600181600116156101000203166002900480601f01602080910402602001604051908101604052809291908181526020018280546001816001161561010002031660029004801561287d5780601f106128525761010080835404028352916020019161287d565b820191906000526020600020905b81548152906001019060200180831161286057829003601f168201915b5050505050815250509050604051806101000160405280826000015181526020018383602001510181526020018260400151815260200182606001518152602001826080015181526020018260a0015181526020018260c0015181526020018260e0015181525060066000858152602001908152602001600020600082015181600001556020820151816001015560408201518160020190805190602001906129279291906137c3565b5060608201518160030190805190602001906129449291906137c3565b506080820151816004015560a0820151816005015560c08201518160060190805190602001906129759291906137c3565b5060e08201518160070190805190602001906129929291906137c3565b50905050505050565b3373ffffffffffffffffffffffffffffffffffffffff168273ffffffffffffffffffffffffffffffffffffffff161415612a3d576040517f08c379a00000000000000000000000000000000000000000000000000000000081526004018080602001828103825260198152602001807f4552433732313a20617070726f766520746f2063616c6c65720000000000000081525060200191505060405180910390fd5b80600b60003373ffffffffffffffffffffffffffffffffffffffff1673ffffffffffffffffffffffffffffffffffffffff16815260200190815260200160002060008473ffffffffffffffffffffffffffffffffffffffff1673ffffffffffffffffffffffffffffffffffffffff16815260200190815260200160002060006101000a81548160ff0219169083151502179055508173ffffffffffffffffffffffffffffffffffffffff163373ffffffffffffffffffffffffffffffffffffffff167f17307eab39ab6107e8899845ad3d59bd9653f200f220920489ca2b5937696c3183604051808215151515815260200191505060405180910390a35050565b612b49848484611890565b612b55848484846133d5565b612baa576040517f08c379a00000000000000000000000000000000000000000000000000000000081526004018080602001828103825260328152602001806138ae6032913960400191505060405180910390fd5b50505050565b60055481565b8073ffffffffffffffffffffffffffffffffffffffff16600a600084815260200190815260200160002060009054906101000a900473ffffffffffffffffffffffffffffffffffffffff1673ffffffffffffffffffffffffffffffffffffffff161415612c71576000600a600084815260200190815260200160002060006101000a81548173ffffffffffffffffffffffffffffffffffffffff021916908373ffffffffffffffffffffffffffffffffffffffff1602179055505b5050565b6000600b60008473ffffffffffffffffffffffffffffffffffffffff1673ffffffffffffffffffffffffffffffffffffffff16815260200190815260200160002060008373ffffffffffffffffffffffffffffffffffffffff1673ffffffffffffffffffffffffffffffffffffffff16815260200190815260200160002060009054906101000a900460ff16905092915050565b6000612d1482612dec565b612d69576040517f08c379a000000000000000000000000000000000000000000000000000000000815260040180806020018281038252602c815260200180613904602c913960400191505060405180910390fd5b6000612d7483612266565b90508073ffffffffffffffffffffffffffffffffffffffff168473ffffffffffffffffffffffffffffffffffffffff161480612de357508373ffffffffffffffffffffffffffffffffffffffff16612dcb84611176565b73ffffffffffffffffffffffffffffffffffffffff16145b91505092915050565b60008073ffffffffffffffffffffffffffffffffffffffff166008600084815260200190815260200160002060009054906101000a900473ffffffffffffffffffffffffffffffffffffffff1673ffffffffffffffffffffffffffffffffffffffff1614159050919050565b600073ffffffffffffffffffffffffffffffffffffffff168273ffffffffffffffffffffffffffffffffffffffff161415612efb576040517f08c379a00000000000000000000000000000000000000000000000000000000081526004018080602001828103825260138152602001807f5a65726f416464726573734d696e6974696e670000000000000000000000000081525060200191505060405180910390fd5b612f0481612dec565b15612f77576040517f08c379a000000000000000000000000000000000000000000000000000000000815260040180806020018281038252600d8152602001807f416c72656164794d696e7465640000000000000000000000000000000000000081525060200191505060405180910390fd5b816008600083815260200190815260200160002060006101000a81548173ffffffffffffffffffffffffffffffffffffffff021916908373ffffffffffffffffffffffffffffffffffffffff160217905550600960008373ffffffffffffffffffffffffffffffffffffffff1673ffffffffffffffffffffffffffffffffffffffff16815260200190815260200160002060008154809291906001019190505550808273ffffffffffffffffffffffffffffffffffffffff16600073ffffffffffffffffffffffffffffffffffffffff167fddf252ad1be2c89b69c2b068fc378daa952ba7f163c4a11628f55a4df523b3ef60405160405180910390a45050565b6000613083826135be565b6130d8576040517f08c379a000000000000000000000000000000000000000000000000000000000815260040180806020018281038252602c815260200180613904602c913960400191505060405180910390fd5b60006130e383612266565b90508073ffffffffffffffffffffffffffffffffffffffff168473ffffffffffffffffffffffffffffffffffffffff16148061315257508373ffffffffffffffffffffffffffffffffffffffff1661313a84611176565b73ffffffffffffffffffffffffffffffffffffffff16145b8061316357506131628185612c75565b5b91505092915050565b8273ffffffffffffffffffffffffffffffffffffffff1661318c82612266565b73ffffffffffffffffffffffffffffffffffffffff16146131f8576040517f08c379a00000000000000000000000000000000000000000000000000000000081526004018080602001828103825260298152602001806139866029913960400191505060405180910390fd5b600073ffffffffffffffffffffffffffffffffffffffff168273ffffffffffffffffffffffffffffffffffffffff16141561327e576040517f08c379a00000000000000000000000000000000000000000000000000000000081526004018080602001828103825260248152602001806138e06024913960400191505060405180910390fd5b61328781613630565b6132ce600360008573ffffffffffffffffffffffffffffffffffffffff1673ffffffffffffffffffffffffffffffffffffffff1681526020019081526020016000206136ee565b613315600360008473ffffffffffffffffffffffffffffffffffffffff1673ffffffffffffffffffffffffffffffffffffffff168152602001908152602001600020613711565b816001600083815260200190815260200160002060006101000a81548173ffffffffffffffffffffffffffffffffffffffff021916908373ffffffffffffffffffffffffffffffffffffffff160217905550808273ffffffffffffffffffffffffffffffffffffffff168473ffffffffffffffffffffffffffffffffffffffff167fddf252ad1be2c89b69c2b068fc378daa952ba7f163c4a11628f55a4df523b3ef60405160405180910390a4505050565b600081600001549050919050565b60006133f68473ffffffffffffffffffffffffffffffffffffffff16613727565b61340357600190506135b6565b60008473ffffffffffffffffffffffffffffffffffffffff1663150b7a02338887876040518563ffffffff1660e01b8152600401808573ffffffffffffffffffffffffffffffffffffffff1673ffffffffffffffffffffffffffffffffffffffff1681526020018473ffffffffffffffffffffffffffffffffffffffff1673ffffffffffffffffffffffffffffffffffffffff16815260200183815260200180602001828103825283818151815260200191508051906020019080838360005b838110156134de5780820151818401526020810190506134c3565b50505050905090810190601f16801561350b5780820380516001836020036101000a031916815260200191505b5095505050505050602060405180830381600087803b15801561352d57600080fd5b505af1158015613541573d6000803e3d6000fd5b505050506040513d602081101561355757600080fd5b8101908080519060200190929190505050905063150b7a0260e01b7bffffffffffffffffffffffffffffffffffffffffffffffffffffffff1916817bffffffffffffffffffffffffffffffffffffffffffffffffffffffff1916149150505b949350505050565b6000806001600084815260200190815260200160002060009054906101000a900473ffffffffffffffffffffffffffffffffffffffff169050600073ffffffffffffffffffffffffffffffffffffffff168173ffffffffffffffffffffffffffffffffffffffff161415915050919050565b600073ffffffffffffffffffffffffffffffffffffffff166002600083815260200190815260200160002060009054906101000a900473ffffffffffffffffffffffffffffffffffffffff1673ffffffffffffffffffffffffffffffffffffffff16146136eb5760006002600083815260200190815260200160002060006101000a81548173ffffffffffffffffffffffffffffffffffffffff021916908373ffffffffffffffffffffffffffffffffffffffff1602179055505b50565b6137066001826000015461373a90919063ffffffff16565b816000018190555050565b6001816000016000828254019250508190555050565b600080823b905060008111915050919050565b6000828211156137b2576040517f08c379a000000000000000000000000000000000000000000000000000000000815260040180806020018281038252601e8152602001807f536166654d6174683a207375627472616374696f6e206f766572666c6f77000081525060200191505060405180910390fd5b600082840390508091505092915050565b828054600181600116156101000203166002900490600052602060002090601f016020900481019282601f1061380457805160ff1916838001178555613832565b82800160010185558215613832579182015b82811115613831578251825591602001919060010190613816565b5b50905061383f9190613888565b5090565b60405180610100016040528060008152602001600081526020016060815260200160608152602001600081526020016000815260200160608152602001606081525090565b6138aa91905b808211156138a657600081600090555060010161388e565b5090565b9056fe4552433732313a207472616e7366657220746f206e6f6e20455243373231526563656976657220696d706c656d656e7465724552433732313a207472616e7366657220746f20746865207a65726f20616464726573734552433732313a206f70657261746f7220717565727920666f72206e6f6e6578697374656e7420746f6b656e4552433732313a2062616c616e636520717565727920666f7220746865207a65726f20616464726573734552433732313a20617070726f76656420717565727920666f72206e6f6e6578697374656e7420746f6b656e4552433732313a207472616e73666572206f6620746f6b656e2074686174206973206e6f74206f776e4552433732313a207472616e736665722063616c6c6572206973206e6f74206f776e6572206e6f7220617070726f766564a265627a7a7231582024ab2cabb965579b35ad09630a88c7315d61940a7f1e0798f7b6653c3e58aeaf64736f6c63430005100032",
  "source": "pragma solidity ^0.5.16;\r\n/* pragma solidity >=0.4.22 <=0.5.0; */\r\n\r\nimport \"./helper_contracts/ERC721.sol\";\r\n\r\ncontract RES4 is ERC721{\r\n    struct Asset{\r\n        uint256 assetId;\r\n        uint256 price;\r\n        string autor;\r\n        string titulo;\r\n        uint256 fecha;\r\n        uint256 frac;\r\n        string tokenCDI;\r\n        string tokenCDI1;\r\n    }\r\n\r\n    uint256 public assetsCount;\r\n    mapping(uint256 => Asset) public assetMap;\r\n    address public supervisor;\r\n    mapping (uint256 => address) private assetOwner;\r\n    mapping (address => uint256) private ownedAssetsCount;\r\n    mapping (uint256 => address) public assetApprovals;\r\n    constructor() public {\r\n        supervisor = msg.sender;\r\n    }\r\n\r\n    //Events\r\n    event Transfer(address indexed from, address indexed to, uint256 indexed tokenId);\r\n    event Approval(address indexed owner, address indexed approved, uint256 indexed tokenId);\r\n\r\n    ////////////////////////////////////////////////////////////////////////////////\r\n                // ERC721 functions //\r\n   ////////////////////////////////////////////////////////////////////////////////\r\n\r\n    function balanceOf() public view returns (uint256) {\r\n        require(msg.sender != address(0), \"ERC721: balance query for the zero address\");\r\n\r\n        return ownedAssetsCount[msg.sender];\r\n    }\r\n\r\n    function ownerOf(uint256 assetId) public view returns (address) {\r\n        address owner = assetOwner[assetId];\r\n        require(owner != address(0), \"NoAssetExists\");\r\n        return owner;\r\n    }\r\n    function transferFrom(address payable from, uint256 assetId) public payable {\r\n        require(isApprovedOrOwner(msg.sender, assetId), \"NotAnApprovedOwner\");\r\n        require(ownerOf(assetId) == from, \"NotTheassetOwner\");\r\n        clearApproval(assetId,getApproved(assetId));\r\n        ownedAssetsCount[from]--;\r\n        ownedAssetsCount[msg.sender]++;\r\n        assetOwner[assetId] = msg.sender;\r\n        from.transfer(assetMap[assetId].price * 1000000000000000000);\r\n        emit Transfer(from, msg.sender, assetId);\r\n    }\r\n\r\n    function approve(address to,uint256 assetId) public {\r\n        address owner = ownerOf(assetId);\r\n        require(to != owner, \"CurrentOwnerApproval\");\r\n        require(msg.sender == owner,\"NotTheAssetOwner\");\r\n        assetApprovals[assetId] = to;\r\n        emit Approval(owner, to, assetId);\r\n    }\r\n\r\n    function getApproved(uint256 assetId) public view returns (address) {\r\n        require(exists(assetId), \"ERC721: approved query for nonexistent token\");\r\n        return assetApprovals[assetId];\r\n    }\r\n\r\n    ////////////////////////////////////////////////////////////////////////////////\r\n                // Additional functions added to the  token //\r\n   ////////////////////////////////////////////////////////////////////////////////\r\n\r\n    function addAsset(uint256 price, string memory autor, string memory titulo, uint256 fecha, uint256 frac, string memory tokenCDI, string memory tokenCDI1, address to) public {\r\n        require(supervisor == msg.sender,'NotAManager');\r\n        assetMap[assetsCount] = Asset(assetsCount,price,autor,titulo,fecha,frac,tokenCDI,tokenCDI1);\r\n        mint(to,assetsCount);\r\n        assetsCount = assetsCount+1;\r\n    }\r\n    function clearApproval(uint256 assetId,address approved) public {\r\n        if (assetApprovals[assetId]==approved){\r\n            assetApprovals[assetId] = address(0);\r\n        }\r\n    }\r\n\r\n    function build(uint256 assetId,uint256 value) public payable{\r\n        require(isApprovedOrOwner(msg.sender, assetId), \"NotAnApprovedowner\");\r\n         Asset memory oldAsset = assetMap[assetId];\r\n         assetMap[assetId] = Asset(oldAsset.assetId, oldAsset.price+value, oldAsset.autor, oldAsset.titulo, oldAsset.fecha, oldAsset.frac, oldAsset.tokenCDI, oldAsset.tokenCDI1);\r\n    }\r\n        function appreciate(uint256 assetId,uint256 value) public{\r\n        require(msg.sender==supervisor,\"NotaManager\");\r\n         Asset memory oldAsset = assetMap[assetId];\r\n         assetMap[assetId] = Asset(oldAsset.assetId, oldAsset.price+value, oldAsset.autor, oldAsset.titulo, oldAsset.fecha, oldAsset.frac, oldAsset.tokenCDI, oldAsset.tokenCDI1);\r\n    }\r\n        function depreciate(uint256 assetId,uint256 value) public{\r\n        require(msg.sender==supervisor,\"NotaManager\");\r\n         Asset memory oldAsset = assetMap[assetId];\r\n         assetMap[assetId] = Asset(oldAsset.assetId, oldAsset.price+value, oldAsset.autor, oldAsset.titulo, oldAsset.fecha, oldAsset.frac, oldAsset.tokenCDI, oldAsset.tokenCDI1);\r\n    }\r\n    function getAssetsSize() public view returns(uint){\r\n        return assetsCount;\r\n    }\r\n    ////////////////////////////////////////////////////////////////////////////////\r\n                // Functions used internally by another functions //\r\n   ////////////////////////////////////////////////////////////////////////////////\r\n\r\n    function mint(address to, uint256 assetId) internal {\r\n        require(to != address(0), \"ZeroAddressMiniting\");\r\n        require(!exists(assetId), \"AlreadyMinted\");\r\n        assetOwner[assetId] = to;\r\n        ownedAssetsCount[to]++;\r\n        emit Transfer(address(0), to, assetId);\r\n    }\r\n\r\n    function exists(uint256 assetId) internal view returns (bool) {\r\n        return assetOwner[assetId] != address(0);\r\n    }\r\n\r\n    function isApprovedOrOwner(address spender, uint256 assetId) internal view returns (bool) {\r\n        require(exists(assetId), \"ERC721: operator query for nonexistent token\");\r\n        address owner = ownerOf(assetId);\r\n        return (spender == owner || getApproved(assetId) == spender);\r\n    }\r\n\r\n   ////////////////////////////////////////////////////////////////////////////////\r\n                // Unused ERC721 functions //\r\n   ////////////////////////////////////////////////////////////////////////////////\r\n    event ApprovalForAll(address indexed owner, address indexed operator, bool approved);\r\n    bytes4 private constant _ERC721_RECEIVED = 0x150b7a02;\r\n    mapping (address => mapping (address => bool)) private _operatorApprovals;\r\n        function setApprovalForAll(address to, bool approved) public {\r\n        require(to != msg.sender, \"ERC721: approve to caller\");\r\n        _operatorApprovals[msg.sender][to] = approved;\r\n        emit ApprovalForAll(msg.sender, to, approved);\r\n    }\r\n    function isApprovedForAll(address owner, address operator) public view returns (bool) {\r\n        return _operatorApprovals[owner][operator];\r\n    }\r\n        function safeTransferFrom(address from, address to, uint256 tokenId) public {\r\n        safeTransferFrom(from, to, tokenId, \"\");\r\n    }\r\n\r\n    function _checkOnERC721Received(address from, address to, uint256 tokenId, bytes memory _data)\r\n        internal returns (bool)\r\n    {\r\n        if (!to.isContract()) {\r\n            return true;\r\n        }\r\n\r\n        bytes4 retval = IERC721Receiver(to).onERC721Received(msg.sender, from, tokenId, _data);\r\n        return (retval == _ERC721_RECEIVED);\r\n    }\r\n    function safeTransferFrom(address from, address to, uint256 tokenId, bytes memory _data) public {\r\n        transferFrom(from, to, tokenId);\r\n        require(_checkOnERC721Received(from, to, tokenId, _data), \"ERC721: transfer to non ERC721Receiver implementer\");\r\n    }\r\n}",
  "sourcePath": "E:\\app_cretivas\\RES4-contract\\contracts\\RES4.sol",
  "compiler": {
    "name": "solc",
    "version": "0.5.16+commit.9c3226ce.Emscripten.clang"
  },
  "schemaVersion": "3.4.16",
  "updatedAt": "2023-09-12T23:30:40.032Z",
  "networkType": "ethereum",
  "devdoc": {
    "methods": {
      "balanceOf(address)": {
        "details": "Gets the balance of the specified address.",
        "params": {
          "owner": "address to query the balance of"
        },
        "return": "uint256 representing the amount owned by the passed address"
      },
      "supportsInterface(bytes4)": {
        "details": "See `IERC165.supportsInterface`.     * Time complexity O(1), guaranteed to always use less than 30 000 gas."
      },
      "transferFrom(address,address,uint256)": {
        "details": "Transfers the ownership of a given token ID to another address. Usage of this method is discouraged, use `safeTransferFrom` whenever possible. Requires the msg.sender to be the owner, approved, or operator.",
        "params": {
          "from": "current owner of the token",
          "to": "address to receive the ownership of the given token ID",
          "tokenId": "uint256 ID of the token to be transferred"
        }
      }
    }
  },
  "userdoc": {
    "methods": {
      "addAsset(uint256,string,string,uint256,uint256,string,string,address)": {
        "notice": "/////////////////////////////////////////////////////////////////////////////"
      },
      "balanceOf()": {
        "notice": "/////////////////////////////////////////////////////////////////////////////"
      }
    }
  }
}